S0190000534C53544B33343030415F626C696E6B5F322E73333742
S11300000020002095030000C1030000C10300008C
S1130010C1030000C1030000C1030000C1030000CC
S1130020C1030000C1030000C1030000C1030000BC
S1130030C1030000C1030000C10300001D11000042
S1130040C1030000C1030000C1030000C10300009C
S1130050C1030000C1030000C1030000C10300008C
S1130060C1030000C1030000C1030000C10300007C
S1130070C1030000C1030000C1030000C10300006C
S1130080C1030000C1030000C1030000C10300005C
S1130090C103000010B5064C2378002B07D1054B93
S11300A0002B02D0044800E000BF0123237010BDE0
S11300B07800002000000000F8150000044B10B583
S11300C0002B03D00349044800E000BF10BDC04624
S11300D0000000007C000020F8150000164B002BE7
S11300E000D1144B9D46402292029A1A9246002156
S11300F08B460F461348144A121A01F029F90F4B84
S1130100002B00D098470E4B002B00D098470020BE
S1130110002104000D000D48002802D00C4800E026
S113012000BF01F0F1F82000290001F019F801F0F6
S1130130D5F8C046000008000020002000000000A0
S1130140000000007800002098000020000000005B
S11301500000000080B582B000AF02003960FB1DD2
S11301601A70FB1D1B78002B21D0FB1D1B78012B63
S11301701AD0FB1D1B78022B14D0FB1D1B78032BFC
S11301800ED0FB1D1B78042B07D0FB1D1B78052B01
S113019001D13F230CE000230AE0F0239B0107E098
S11301A0F02305E0114B03E0D323DB0100E0104B07
S11301B03A6813410122134005D10E4A0E4B110037
S11301C0180000F0BDF901223B689A4010000B4969
S11301D0FB1D1A781300DB009B189B00CB1814330B
S11301E01860C046BD4602B080BDC0461FEF000087
S11301F007070000C20300007C13000000600040F9
S113020080B582B000AF02003960FB1D1A70FB1D7F
S11302101B78002B21D0FB1D1B78012B1AD0FB1D52
S11302201B78022B14D0FB1D1B78032B0ED0FB1D57
S11302301B78042B07D0FB1D1B78052B01D13F2312
S11302400CE000230AE0F0239B0107E0F02305E023
S1130250114B03E0D323DB0100E0104B3A68134158
S11302600122134005D10E4A0E4B1100180000F074
S113027067F901223B689A4010000B49FB1D1A786C
S11302801300DB009B189B00CB1810331860C0468A
S1130290BD4602B080BDC0461FEF00000707000046
S11302A0F10300007C1300000060004080B582B0C0
S11302B000AF134B0121180000F0E2FA114B0121A9
S11302C0180000F0DDFA00237B6010E00E4B7A6822
S11302D0D200D05C0C4A7B68DB00D3180433196865
S11302E00023042200F07CFD7B6801337B607B6883
S11302F0012BEBDD00231800BD4602B080BDC046D3
S11303004081040000820400E813000080B582B03C
S113031000AF78607B68002B11DB7B68012B0EDC5F
S11303200A4B7A68D200D05C084A7B68DB00D31899
S113033004331B681900FFF70DFF002301E00123BC
S11303405B421800BD4602B080BDC046E813000001
S113035080B582B000AF78607B68002B11DB7B68CE
S1130360012B0EDC0A4B7A68D200D05C084A7B6809
S1130370DB00D31804331B681900FFF741FF002387
S113038001E001235B421800BD4602B080BDC046B7
S1130390E8130000064880470649074A074B9B1AA2
S11303A003DD043BC858D050FBDCFFF797FE000088
S11303B0F90400000416000000000020780000206A
S11303C0FEE7C04680B582B000AF00F017F8030026
S11303D07B60084B5B680F2213407A68DA40130095
S11303E07B60054B7A681A607B681800BD4602B0D2
S11303F080BDC04600800C400800002080B582B05B
S113040000AF334BDB6A334A1340802252019342DC
S113041015D080225201934204D8802212019342C3
S113042011D017E080229201934204D08022D2049A
S113043093420CD00EE0284B1B687B6039E080238C
S11304401B027B6035E0254B1B687B6031E0244B4D
S11304507B602EE01E4BDA68E023DB001340802231
S11304609200934218D080229200934206D8002B27
S113047018D080225200934211D016E0C02292007C
S1130480934206D08022D20093420ED1154B7B605A
S11304900EE0154B7B600BE0144B7B6008E0144BC3
S11304A07B6005E0134B7B6002E000237B60C04669
S11304B0C046074B1B689B0B0722134001331900EE
S11304C0786800F07FFE03001800BD4602B080BDCE
S11304D000800C40003C00040400002000000020C8
S11304E000366E01406F4001809FD500C0D8A70040
S11304F040B56400804F120080B500AF024B034A40
S11305009A60C046BD4680BD00ED00E000000000DA
S113051080B500AF80231B021800BD4680BD80B5A6
S113052000AFFA239B001800BD4680BD80B500AF24
S1130530024B1B681800BD4680BDC0460400002065
S113054080B582B000AF78603960FEE780B586B0D0
S113055000AFF860B9607A60FB681B687B610122B8
S1130560BB689A401300DB431A007B691A407B681E
S113057001211940BB6899400B001A43FB681A60BB
S1130580C046BD4606B080BD80B500AF034BDB6CF2
S11305901B0EDBB21800BD4680BDC046B081E00F23
S11305A080B582B000AF254B5A69E023DB001340CD
S11305B08022920093421ED080229200934206D859
S11305C0002B26D08022520093421FD027E0C02265
S11305D09200934204D0E022D20093421CD01EE049
S11305E0FFF7D2FF0300122B02D9154B7B6020E0EA
S11305F0144B7B601DE0FFF7C7FF0300122B02D9E9
S1130600114B7B6015E0114B7B6012E0104B7B605B
S11306100FE0104B7B600CE00F4B7B6009E0002384
S11306207B60A6231A010D4B11001800FFF788FF09
S1130630C0467B681800BD4602B080BD00800C40F7
S1130640804F120040420F0040B56400C0CF6A00E2
S1130650C0D8A700809FD500406F400164140000FB
S113066090B583B000AFFC1C114B180000F014FAD5
S113067003002370FB1C1B78072B06D0092B09D120
S1130680FFF7BCFE03007B600DE0FFF789FF03006A
S11306907B6008E000237B60064A074B11001800CA
S11306A0FFF74EFFC0467B681800BD4603B090BDFF
S11306B006000E009A0A00006414000080B584B09D
S11306C000AF78600023BB607B683F4A93420CD044
S11306D03E4A934209D03E4A934206D03D4A3E4B9D
S11306E011001800FFF72CFF00E0C0467B681800DB
S11306F000F0D2F90300FB607B68334A93420BD0CD
S1130700324A93420FD0324A934213D1334B9B6AFD
S113071003221340FB6014E0304B9B6A9B080322C6
S11307201340FB600DE02D4B9B6A1B090322134011
S1130730FB6006E02A4A284B11001800FFF700FF6F
S1130740C046FB68012B05D014D3022B07D0032B22
S11307500AD02AE0FFF7DCFE0300BB602FE0FFF7BE
S1130760E5FE0300BB602AE0FFF72CFE03005B08F4
S1130770BB6024E00023BB607B68154A934203D02E
S11307807B68114A934219D1144B9A6A7B681049C9
S11307908B4201D1102300E01423DA40131E0DD044
S11307A0FFF7BDFE0300BB6008E00023BB600D4AF9
S11307B0094B11001800FFF7C3FE00E0C046BB68F8
S11307C01800BD4604B080BD03001E0004002000D4
S11307D002001C00A30C00006414000000800C4004
S11307E0D20C0000FD0C000080B582B000AF786030
S11307F0074B5B6D0122134006D1C046044B1B6DB1
S11308007A681340FAD100E0C046BD4602B080BD0C
S113081000800C4090B583B000AFFC1C164B180050
S113082000F03AF903002370FB1C1B78032B0DD056
S113083002DC022B05D017E0092B10D00A2B0AD0BA
S113084012E0FFF773FE03007B6010E0FFF760FE29
S113085003007B600BE0094B1B687B6007E0FFF73C
S1130860CDFD03007B6002E000237B60C0467B6813
S11308701800BD4603B090BD073324000C000020CF
S113088080B586B000AF78600A00FB1C1A700023A4
S11308903B617B681B0A0F2213400A2B20D89A0065
S11308A01E4BD3181B689F461D4B7B611FE01D4BDD
S11308B07B611CE01C4B7B6119E01C4B7B610123B9
S11308C03B6114E01A4B7B6110233B610FE0194B31
S11308D07B6180235B003B6109E0174B7B6106E091
S11308E0164A174B11001800FFF72AFE12E07B6826
S11308F01B0B1F221340FB603B69002B03D03B6999
S11309001800FFF771FFFB1C1A78F9687B6918005F
S1130910FFF71CFEBD4606B080BDC046D0140000E3
S113092040800C4008800C4044800C4058800C40AF
S113093060800C4064800C4078800C400B110000F7
S11309406414000080B584B000AF78607A68F8233E
S11309509B03134080225203934200D179E080220A
S11309605203934213D88022920293423BD08022B6
S11309709202934202D8002B23D074E08022D20248
S1130980934223D0E022120393425DD06BE0E02235
S1130990520393422CD0E0225203934208D890226F
S11309A0520393422BD0C022520393423DD05AE0CB
S11309B0F0225203934231D09022920393424DD0BD
S11309C051E0FFF71BFD0300FB6055E0FFF716FD48
S11309D00300FB602B4B9B680F221340FA68DA403C
S11309E01300FB6048E0FFF7EDFC0300FB6043E00D
S11309F0254B1800FFF762FE0300FB603CE0224B2E
S1130A001800FFF75BFE0300FB601E4B9B6E0F227A
S1130A101340FA68DA401300FB602DE01B4B18000A
S1130A20FFF74CFE0300FB6026E0184B1800FFF7AD
S1130A3045FE0300FB60134B1B6F03221340FA684F
S1130A40DA401300FB6017E0FFF70AFE0300FB60C7
S1130A5012E0FFF7A5FD0300FB600DE0FFF7DAFEEF
S1130A600300FB6008E00023FB60094A094B110006
S1130A701800FFF765FDC046FB681800BD4604B0CA
S1130A8080BDC04600800C4002001C0003001E0014
S1130A90181200006414000080B584B000AF7860C0
S1130AA00F23FB1801221A707B680F221340BB60CE
S1130AB0BB68072B00D9CAE0BB689A006D4BD318FA
S1130AC01B689F466C4BDB6A6C4A134080225201C0
S1130AD0934216D080225201934204D880221201FC
S1130AE0934213D01CE080229201934204D08022CE
S1130AF0D20493420FD013E00F23FB1802221A7082
S1130B0013E00F23FB1803221A700EE00F23FB18C7
S1130B1004221A7009E00F23FB180B221A7004E058
S1130B200F23FB1805221A70C0469BE0524B9B6AA8
S1130B3003221340022B08D0032B0BD0012B0ED120
S1130B400F23FB1803221A7015E00F23FB1802224F
S1130B501A7010E00F23FB1806221A700BE0464BA4
S1130B609A6A80235B02134004D00F23FB180C22E3
S1130B701A7000E0C04675E03F4B9B6A0C2213409C
S1130B80082B08D00C2B0BD0042B0ED10F23FB18F1
S1130B9003221A7015E00F23FB1802221A7010E0CA
S1130BA00F23FB1806221A700BE0334B9A6A80233A
S1130BB05B03134004D00F23FB180C221A7000E0CF
S1130BC0C0464FE02C4B9B6A30221340102B02D0BE
S1130BD0202B05D009E00F23FB1803221A7009E02B
S1130BE00F23FB1802221A7004E00F23FB180122C2
S1130BF01A70C04636E00F23FB1807221A7031E042
S1130C001D4BDA6AE023DB021340802292029342F6
S1130C1012D08022D202934204D080225202934204
S1130C2005D00EE00F23FB180A221A700EE00F23E2
S1130C30FB1802221A7009E00F23FB1803221A7012
S1130C4004E00F23FB1801221A70C0460AE00F23A8
S1130C50FB1800221A700A4A0A4B11001800FFF709
S1130C606FFCC0460F23FB181B781800BD4604B068
S1130C7080BDC046FC14000000800C40003C000411
S1130C800A1600006414000080B582B000AF0200B0
S1130C903960FB1D1A70FB1D1B78002B21D0FB1D36
S1130CA01B78012B1AD0FB1D1B78022B14D0FB1DC3
S1130CB01B78032B0ED0FB1D1B78042B07D0FB1DC8
S1130CC01B78052B01D13F230CE000230AE0F0231D
S1130CD09B0107E0F02305E0114B03E0D323DB0184
S1130CE000E0104B3A6813410122134005D10E4A2B
S1130CF00E4B11001800FFF723FC01223B689A40B9
S1130D0010000B49FB1D1A781300DB009B189B0095
S1130D10CB1814331860C046BD4602B080BDC0462F
S1130D201FEF000007070000C20300001C150000AD
S1130D300060004080B582B000AF02003960FB1D46
S1130D401A70FB1D1B78002B21D0FB1D1B78012B77
S1130D501AD0FB1D1B78022B14D0FB1D1B78032B10
S1130D600ED0FB1D1B78042B07D0FB1D1B78052B15
S1130D7001D13F230CE000230AE0F0239B0107E0AC
S1130D80F02305E0114B03E0D323DB0100E0104B1B
S1130D903A6813410122134005D10E4A0E4B11004B
S1130DA01800FFF7CDFB01223B689A4010000B4965
S1130DB0FB1D1A781300DB009B189B00CB18103323
S1130DC01860C046BD4602B080BDC0461FEF00009B
S1130DD007070000F10300001C150000006000403C
S1130DE090B585B000AFB96011007B600F243B194A
S1130DF0021C1A700E23FB180A1C1A703B191B786C
S1130E00002B26D00F23FB181B78012B1ED00F2399
S1130E10FB181B78022B17D00F23FB181B78032B0E
S1130E2010D00F23FB181B78042B08D00F23FB18BA
S1130E301B78052B01D13F230CE000230AE0F023AB
S1130E409B0107E0F02305E04D4B03E0D323DB01D6
S1130E5000E04C4BBA6813410122134006D18A23A7
S1130E605A00494B11001800FFF76AFB0E23FB18C8
S1130E701B78002B13D07B68002B08D0BA680F2393
S1130E80FB181B7811001800FFF754FF07E0BA683D
S1130E900F23FB181B7811001800FFF7F5FEBB6841
S1130EA0072B25D839490F243B191A781300DB0086
S1130EB09B189B00CB1804331B68BA6892000F215F
S1130EC091400A00D24313400E22BA181178BA682E
S1130ED0920091400A0011002C483A1912781943E3
S1130EE01300DB009B189B00C318043319602AE02D
S1130EF026490F243B191A781300DB009B189B002A
S1130F00CB1808331B68BA6821498C4662449200A6
S1130F100F2191400A00D24313400E22BA181178CF
S1130F20BA681B4884466244920091400A0011004A
S1130F3016483A19127819431300DB009B189B00DA
S1130F40C318083319600E23FB181B78002B13D128
S1130F507B68002B08D0BA680F23FB181B7811009C
S1130F601800FFF7E7FE07E0BA680F23FB181B78A9
S1130F7011001800FFF788FEC046BD4605B090BDBD
S1130F801FEF000007070000881500000060004004
S1130F90F8FFFF3F90B583B000AF02003960FB1D3E
S1130FA01A70FB1D1B787F2B28D82F4AFB1D1B783A
S1130FB05BB29B08C0339B009B58FA1D127811004A
S1130FC003220A40D200FF2191400A00D2431A4072
S1130FD011003B689B01FF221A40FB1D1B7818007F
S1130FE003230340DB009A401F48FB1D1B785BB2C0
S1130FF09B080A43C0339B001A5031E01B4AFB1D77
S11310001B7819000F230B40083B9B0806339B00F9
S1131010D31804331B68FA1D1278110003220A4006
S1131020D200FF2191400A00D2431A4011003B68CC
S11310309B01FF221A40FB1D1B7818000323034069
S1131040DB009A400948FB1D1B781C000F2323403A
S1131050083B9B080A4306339B00C31804331A60F9
S1131060C046BD4603B090BD00E100E000ED00E0E5
S113107080B582B000AF78607B68013B0C4A934234
S113108001D9012310E00B4B7A68013A5A6001231D
S11310905B4203211800FFF77DFF064B00229A6094
S11310A0044B07221A6000231800BD4602B080BD1D
S11310B0FFFFFF0010E000E080B500AF034BDB6CE6
S11310C01B0EDBB21800BD4680BDC046B081E00FE8
S11310D090B583B000AF0C4B01221A64FC1DFFF7DE
S11310E0EBFF03002370FB1D1B78812B08D8074BF3
S11310F0074A1A60074B1A68064B07490A401A60E8
S1131100C046BD4603B090BD00000C4018600C40C2
S113111005000004E4800C40FFFFFFFE80B500AF33
S1131120034B1B685A1C024B1A60C046BD4680BD67
S11311309400002080B584B000AF7860074B1B6832
S1131140FB60C046054B1A68FB68D31A7A689A425A
S1131150F8D8C046BD4604B080BDC0469400002007
S113116080B582B000AF00237B60FFF7B1FF144B62
S11311701800FFF7E7FB0200FA239900100000F0C3
S113118021F803001800FFF773FF031E00D0FEE7E9
S1131190FFF78CF80A4B1800FFF7D4FB03003B6001
S11311A00020FFF7B3F8FA239B001800FFF7C2FFF3
S11311B00020FFF7CDF86420FFF7BCFFF0E7C0463E
S11311C070000200002243088B4274D303098B424F
S11311D05FD3030A8B4244D3030B8B4228D3030C03
S11311E08B420DD3FF22090212BA030C8B4202D3A5
S11311F01212090265D0030B8B4219D300E0090ACD
S1131200C30B8B4201D3CB03C01A5241830B8B42D5
S113121001D38B03C01A5241430B8B4201D34B03BE
S1131220C01A5241030B8B4201D30B03C01A524123
S1131230C30A8B4201D3CB02C01A5241830A8B42A8
S113124001D38B02C01A5241430A8B4201D34B0291
S1131250C01A5241030A8B4201D30B02C01A5241F5
S1131260CDD2C3098B4201D3CB01C01A52418309A9
S11312708B4201D38B01C01A524143098B4201D3E3
S11312804B01C01A524103098B4201D30B01C01A0E
S11312905241C3088B4201D3CB00C01A5241830888
S11312A08B4201D38B00C01A524143088B4201D3B5
S11312B04B00C01A5241411A00D201465241104615
S11312C07047FFE701B5002000F006F802BDC046F4
S11312D00029F7D076E770477047C046084B10B531
S11312E00400002B02D0002100E000BF054B186869
S11312F0836A002B00D09847200000F031F8C046E4
S113130000000000F415000070B500260C4D0D4CD3
S1131310641BA410A64209D1002600F023F80A4D4C
S11313200A4C641BA410A64205D170BDB300EB584F
S113133098470136EEE7B300EB5898470136F2E7D9
S11313407000002070000020700000207400002055
S113135003001218934200D1704719700133F9E762
S1131360FEE7C046F8B5C046F8BC08BC9E467047C8
S1131370F8B5C046F8BC08BC9E4670472F686F6D30
S1131380652F6272656368742F50726F6772616D46
S1131390732F53696D706C696369747953747564E0
S11313A0696F5F76342F646576656C6F7065722F34
S11313B073646B732F6765636B6F5F73646B5F73C9
S11313C0756974652F76322E342F2F706C617466B4
S11313D06F726D2F656D6C69622F696E632F656D19
S11313E05F6770696F2E680005000000040000004C
S11313F005000000050000002F686F6D652F627204
S1131400656368742F50726F6772616D732F5369CF
S11314106D706C696369747953747564696F5F7610
S1131420342F646576656C6F7065722F73646B73AB
S11314302F6765636B6F5F73646B5F737569746546
S11314402F76322E342F2F706C6174666F726D2F6D
S1131450656D6C69622F696E632F656D5F636D7571
S11314602E6800002F686F6D652F62726563687463
S11314702F50726F6772616D732F53696D706C6951
S11314806369747953747564696F5F76342F646526
S113149076656C6F7065722F73646B732F67656309
S11314A06B6F5F73646B5F73756974652F76322E2F
S11314B0342F706C6174666F726D2F656D6C696228
S11314C02F7372632F656D5F636D752E630000006B
S11314D0E0080000AE080000B4080000A8080000FE
S11314E0E0080000E0080000BA080000C40800009A
S11314F0CE080000E0080000DA0800004E0C0000EE
S1131500C40A00002C0B0000780B0000C40B000080
S11315104E0C0000F60B0000000C00002F686F6DED
S1131520652F6272656368742F50726F6772616DA4
S1131530732F53696D706C6963697479537475643E
S1131540696F5F76342F646576656C6F7065722F92
S113155073646B732F6765636B6F5F73646B5F7327
S1131560756974652F76322E342F2F706C61746612
S11315706F726D2F656D6C69622F696E632F656D77
S11315805F6770696F2E68002F686F6D652F6272D8
S1131590656368742F50726F6772616D732F53693E
S11315A06D706C696369747953747564696F5F767F
S11315B0342F646576656C6F7065722F73646B731A
S11315C02F6765636B6F5F73646B5F7375697465B5
S11315D02F76322E342F706C6174666F726D2F65A6
S11315E06D6C69622F7372632F656D5F6770696FCD
S10F15F02E63000010000020000000002A
S10B15FCE0EAFF7F010000009A
S113160400366E0100800000809FD500006CDC026F
S113161400000000000000000000000000000000C2
S113162400000000000000000000000000000000B2
S113163400000000000000000000000000000000A2
S11316440000000000000000000000000000000092
S11316540000000000000000000000000000000082
S11316640000000000000000000000000000000072
S10B1674BD0000009500000018
S903039564
