:1000000000200020411B00006D1B00006D1B000044
:100010006D1B00006D1B00006D1B00006D1B0000C0
:100020006D1B00006D1B00006D1B00006D1B0000B0
:100030006D1B00006D1B00006D1B0000010900001E
:100040006D1B00006D1B00006D1B00006D1B000090
:100050006D1B00006D1B00006D1B00006D1B000080
:10006000F5220000A12300006D1B00006D1B0000A5
:100070006D1B00006D1B00006D1B00006D1B000060
:100080006D1B00006D1B00006D1B00006D1B000050
:100090006D1B000010B5064C2378002B07D1054BD3
:1000A000002B02D0044800E000BF0123237010BDE4
:1000B0007800002000000000FC2D0000044B10B56B
:1000C000002B03D00349044800E000BF10BDC04628
:1000D000000000007C000020FC2D0000164B002BCF
:1000E00000D1144B9D46402292029A1A924600215A
:1000F0008B460F461348144A121A02F06BFA0F4B44
:10010000002B00D098470E4B002B00D098470020C2
:10011000002104000D000D48002802D00C4800E02A
:1001200000BF02F01BFA2000290000F073FC02F06F
:10013000FFF9C04600000800002000200000000079
:1001400000000000780000204C01002000000000AA
:100150000000000080B582B000AF02003960FB1DD6
:100160001A70FB1D1B78002B21D0FB1D1B78012B67
:100170001AD0FB1D1B78022B14D0FB1D1B78032B00
:100180000ED0FB1D1B78042B07D0FB1D1B78052B05
:1001900001D13F230CE000230AE0F0239B0107E09C
:1001A000F02305E0114B03E0D323DB0100E0104B0B
:1001B0003A6813410122134005D10E4A0E4B11003B
:1001C000180000F0EBFC01223B689A4010000B493C
:1001D000FB1D1A781300DB009B189B00CB1814330F
:1001E0001860C046BD4602B080BDC0461FEF00008B
:1001F00007070000C20300007826000000600040EE
:1002000080B582B000AF02003960FB1D1A70FB1D83
:100210001B78002B21D0FB1D1B78012B1AD0FB1D56
:100220001B78022B14D0FB1D1B78032B0ED0FB1D5B
:100230001B78042B07D0FB1D1B78052B01D13F2316
:100240000CE000230AE0F0239B0107E0F02305E027
:10025000114B03E0D323DB0100E0104B3A6813415C
:100260000122134005D10E4A0E4B1100180000F078
:1002700095FC01223B689A4010000B49FB1D1A783F
:100280001300DB009B189B00CB1810331860C0468E
:10029000BD4602B080BDC0461FEF0000070700004A
:1002A000F1030000782600000060004090B587B0A0
:1002B00000AF2E4B0121180000F010FE2C4B012145
:1002C000180000F00BFE002304220C21042001F092
:1002D000B5F8012304220421032001F0AFF8012323
:1002E00004220A21042001F0A9F8012301220B2194
:1002F000042001F0A3F83B001E4A13CA13C313CA1B
:1003000013C33B0000221A703B0000225A603B00DE
:10031000194A9A603B0005221A733B0001225A7366
:100320003B0001229A733B0000221A823B0000220C
:100330009A743B0000221A753B0000225A753B005C
:100340000E4A1900100001F0EBFA0C4B0F225A650F
:100350000A4B0521180001F055FA0D210420FFF782
:100360004FFFC046BD4607B090BDC04600820400A6
:1003700000320400E426000000093D0000C00040F7
:10038000B0B584B000AF0200FB1D1A700421032039
:10039000FFF7E0FE0F4B0B21180001F09EFBFB1D49
:1003A0001B780C4A1900100001F097FB0F257C19EF
:1003B000084B0021180001F090FB0300237004217A
:1003C0000320FFF71DFF7B191B781800BD4604B002
:1003D000B0BDC04600C0004080B582B000AF020092
:1003E000FB1D1A70BB1D0A1C1A7004210320FFF7A5
:1003F000B1FE0D4B0A21180001F06FFBFB1D1B78AD
:10040000094A1900100001F068FBBB1D1B78064A61
:100410001900100001F061FB04210320FFF7F0FE3A
:10042000C046BD4602B080BD00C0004080B500AFF0
:1004300004210320FFF78EFE154B0B21180001F05D
:100440004CFB134B0821180001F047FB104B002117
:10045000180001F042FB03005AB20E4B1A700C4B0D
:100460000021180001F039FB03005AB2094B5A7001
:10047000074B0021180001F030FB03005AB2054B76
:100480009A7004210320FFF7BBFEC046BD4680BD25
:1004900000C000409400002080B582B000AF020090
:1004A000FB1D1A70FB1D1B78002B04D113212C207F
:1004B000FFF792FF10E0FB1D1B78012B04D15321A5
:1004C0002C20FFF789FF07E0FB1D1B78022B03D1CF
:1004D00093212C20FFF780FFC046BD4602B080BDAF
:1004E00080B500AF52211F20FFF776FFC046BD4602
:1004F00080BD80B500AF0020FFF742FF0300AD3B99
:100500005A425341DBB21800BD4680BD80B582B06F
:1005100000AF0200FB1D1A70BB1D0A1C1A70BB1D28
:100520001B785BB2002B06D1FB1D00229A561300EC
:100530001B019B1A19E0BB1D1B785BB2012B06D176
:10054000FB1D00229A5613005B019B1A0DE0BB1D98
:100550001B785BB2022B07D1FB1D00229A561300B9
:100560005B019B1A5B0000E000231800BD4602B04F
:1005700080BD000090B583B000AF02003960FB1D64
:100580001A70FB1D1B787F2B28D82F4AFB1D1B7868
:100590005BB29B08C0339B009B58FA1D1278110078
:1005A00003220A40D200FF2191400A00D2431A40A0
:1005B00011003B689B01FF221A40FB1D1B781800AD
:1005C00003230340DB009A401F48FB1D1B785BB2EE
:1005D0009B080A43C0339B001A5031E01B4AFB1DA5
:1005E0001B7819000F230B40083B9B0806339B0028
:1005F000D31804331B68FA1D1278110003220A4035
:10060000D200FF2191400A00D2431A4011003B68FA
:100610009B01FF221A40FB1D1B7818000323034097
:10062000DB009A400948FB1D1B781C000F23234068
:10063000083B9B080A4306339B00C31804331A6027
:10064000C046BD4603B090BD00E100E000ED00E013
:1006500080B582B000AF78607B68013B0C4A934262
:1006600001D9012310E00B4B7A68013A5A6001234B
:100670005B4203211800FFF77DFF064B00229A60C2
:10068000044B07221A6000231800BD4602B080BD4B
:10069000FFFFFF0010E000E080B500AF034BDB6C14
:1006A0001B0EDBB21800BD4680BDC046B081E00F16
:1006B00080B582B000AF02003960FB1D1A70FB1DCF
:1006C0001B78002B21D0FB1D1B78012B1AD0FB1DA2
:1006D0001B78022B14D0FB1D1B78032B0ED0FB1DA7
:1006E0001B78042B07D0FB1D1B78052B01D13F2362
:1006F0000CE000230AE0F0239B0107E0F02305E073
:10070000114B03E0D323DB0100E0104B3A681341A7
:100710000122134005D10E4A0E4B1100180000F0C3
:100720003DFA01223B689A4010000B49FB1D1A78E4
:100730001300DB009B189B00CB1814331860C046D5
:10074000BD4602B080BDC0461FEF00000707000095
:10075000C2030000FC2600000060004080B582B0AB
:1007600000AF02003960FB1D1A70FB1D1B78002BC7
:1007700021D0FB1D1B78012B1AD0FB1D1B78022BEF
:1007800014D0FB1D1B78032B0ED0FB1D1B78042BF4
:1007900007D0FB1D1B78052B01D13F230CE0002364
:1007A0000AE0F0239B0107E0F02305E0114B03E092
:1007B000D323DB0100E0104B3A68134101221340C0
:1007C00005D10E4A0E4B1100180000F0E7F9012286
:1007D0003B689A4010000B49FB1D1A781300DB00A0
:1007E0009B189B00CB1810331860C046BD4602B062
:1007F00080BDC0461FEF000007070000F1030000A6
:10080000FC2600000060004080B582B000AF02000E
:100810003960FB1D1A70FB1D1B78002B21D0FB1DBE
:100820001B78012B1AD0FB1D1B78022B14D0FB1D4B
:100830001B78032B0ED0FB1D1B78042B07D0FB1D50
:100840001B78052B01D13F230CE000230AE0F023A5
:100850009B0107E0F02305E0114B03E0D323DB010C
:1008600000E0104B3A6813410122134005D10E4AB3
:100870000E4B1100180000F091F901223B689A40DC
:1008800010000B49FB1D1A781300DB009B189B001E
:10089000CB1818331860C046BD4602B080BDC046B4
:1008A0001FEF0000070700000C040000FC260000FA
:1008B0000060004090B583B000AF0C4B01221A6479
:1008C000FC1DFFF7E9FE03002370FB1D1B78812B45
:1008D00008D8074B074A1A60074B1A68064B0749A6
:1008E0000A401A60C046BD4603B090BD00000C40EF
:1008F00018600C4005000004E4800C40FFFFFFFE80
:1009000080B500AF034B1B685A1C024B1A60C046EF
:10091000BD4680BD9800002080B584B000AF7860EF
:10092000074B1B68FB60C046054B1A68FB68D31A6F
:100930007A689A42F8D8C046BD4604B080BDC04629
:100940009800002080B500AF012304220421052077
:1009500000F074FD012304220521052000F06EFD46
:1009600004210520FFF7A4FE05210520FFF7A0FEC6
:10097000C046BD4680BD000080B500AF0B4B1800DF
:1009800001F024FC04210520FFF792FE052105203B
:10099000FFF7E4FE6420FFF7BFFF04210520FFF707
:1009A00033FF05210520FFF72FFFF3E7682700003D
:1009B00080B500AFFFF794FDFFF79BFD031E04D049
:1009C000104B180001F002FC19E00F4B180001F069
:1009D000FDFBFA239B001800FFF79EFFFFF780FD49
:1009E000FFF787FD031E04D0084B180001F0EEFB53
:1009F00005E0074B180001F0E9FBFFF7BDFFC0461B
:100A0000BD4680BDB0280000D828000000290000A5
:100A10002829000080B582B000AF00237B60FFF77B
:100A200049FF514B180000F0BBFA0200FA2399006D
:100A3000100001F0F1FC03001800FFF709FE031E8F
:100A400000D0FEE7FFF732FCFFF77CFF47480023AA
:100A50000122042101F0ECF9454B180001F0B6FB2E
:100A6000FFF7A6FFFB1C01221A70FB1C1B78180065
:100A7000FFF712FDFB1C1B78002B04D13D4B180027
:100A800001F0A4FB10E0FB1C1B78012B04D13A4BB6
:100A9000180001F09BFB07E0FB1C1B78022B03D125
:100AA000364B180001F092FB02212D20FFF794FC39
:100AB000334B180001F08AFB04210520FFF74EFE9E
:100AC000FFF7B4FC2F4B180001F036FB7B681800D1
:100AD00001F052FB2C4B180001F02EFB2B4B1B7826
:100AE0005AB2FB1C1B785BB219001000FFF70EFD19
:100AF000030019000A2001F052FB254B180001F0F9
:100B00001BFB224B5B785AB2FB1C1B785BB21900B3
:100B10001000FFF7FBFC030019000A2001F03FFB67
:100B20001C4B180001F008FB184B9B785AB2FB1CB9
:100B30001B785BB219001000FFF7E8FC03001900F6
:100B40000A2001F02CFB144B180001F0F5FA0421E7
:100B50000520FFF7ADFD7B6801337B60FA239B0026
:100B60001800FFF7D9FEA7E77000020000C400409C
:100B700050290000742900009C290000C4290000AD
:100B8000EC290000082A00000C2A00009400002034
:100B9000142A0000202A00002C2A000080B582B010
:100BA00000AF78603960FEE780B586B000AFF860CE
:100BB000B9607A60FB681B687B610122BB689A4060
:100BC0001300DB431A007B691A407B68012119403E
:100BD000BB6899400B001A43FB681A60C046BD46CB
:100BE00006B080BD80B500AF034BDB6C1B0EDBB2E3
:100BF0001800BD4680BDC046B081E00F80B582B010
:100C000000AF254B5A69E023DB001340802292009D
:100C100093421ED080229200934206D8002B26D009
:100C20008022520093421FD027E0C02292009342BC
:100C300004D0E022D20093421CD01EE0FFF7D2FF86
:100C40000300122B02D9154B7B6020E0144B7B6014
:100C50001DE0FFF7C7FF0300122B02D9114B7B6089
:100C600015E0114B7B6012E0104B7B600FE0104BE6
:100C70007B600CE00F4B7B6009E000237B60A623C8
:100C80001A010D4B11001800FFF788FFC0467B6862
:100C90001800BD4602B080BD00800C40804F12009D
:100CA00040420F0040B56400C0CF6A00C0D8A70022
:100CB000809FD500406F4001A02A000090B583B00E
:100CC00000AFFC1C114B180000F014FA0300237055
:100CD000FB1C1B78072B06D0092B09D100F064FF01
:100CE00003007B600DE0FFF789FF03007B6008E0F5
:100CF00000237B60064A074B11001800FFF74EFFE8
:100D0000C0467B681800BD4603B090BD06000E00CB
:100D10009A0A0000A02A000080B584B000AF786075
:100D20000023BB607B683F4A93420CD03E4A93420B
:100D300009D03E4A934206D03D4A3E4B110018006E
:100D4000FFF72CFF00E0C0467B68180000F0D2F9E6
:100D50000300FB607B68334A93420BD0324A9342D4
:100D60000FD0324A934213D1334B9B6A0322134074
:100D7000FB6014E0304B9B6A9B0803221340FB602E
:100D80000DE02D4B9B6A1B0903221340FB6006E01C
:100D90002A4A284B11001800FFF700FFC046FB68E5
:100DA000012B05D014D3022B07D0032B0AD02AE045
:100DB00000F084FF0300BB602FE000F08DFF030014
:100DC000BB602AE000F0D4FE03005B08BB6024E0B7
:100DD0000023BB607B68154A934203D07B68114AAD
:100DE000934219D1144B9A6A7B6810498B4201D106
:100DF000102300E01423DA40131E0DD000F065FF2D
:100E00000300BB6008E00023BB600D4A094B1100E2
:100E10001800FFF7C3FE00E0C046BB681800BD46DF
:100E200004B080BD03001E000400200002001C006E
:100E3000A30C0000A02A000000800C40D20C00008F
:100E4000FD0C000080B582B000AF7860074B5B6D91
:100E50000122134006D1C046044B1B6D7A68134033
:100E6000FAD100E0C046BD4602B080BD00800C4013
:100E700090B583B000AFFC1C164B180000F03AF997
:100E800003002370FB1C1B78032B0DD002DC022B0C
:100E900005D017E0092B10D00A2B0AD012E000F081
:100EA0001BFF03007B6010E000F008FF03007B6085
:100EB0000BE0094B1B687B6007E000F075FE030048
:100EC0007B6002E000237B60C0467B681800BD4663
:100ED00003B090BD073324000000002080B586B029
:100EE00000AF78600A00FB1C1A7000233B617B682E
:100EF0001B0A0F2213400A2B20D89A001E4BD3182E
:100F00001B689F461D4B7B611FE01D4B7B611CE0F6
:100F10001C4B7B6119E01C4B7B6101233B6114E09E
:100F20001A4B7B6110233B610FE0194B7B618023DF
:100F30005B003B6109E0174B7B6106E0164A174BEB
:100F400011001800FFF72AFE12E07B681B0B1F221E
:100F50001340FB603B69002B03D03B691800FFF78F
:100F600071FFFB1C1A78F9687B691800FFF71CFEFB
:100F7000BD4606B080BDC0460C2B000040800C4032
:100F800008800C4044800C4058800C4060800C402D
:100F900064800C4078800C400B110000A02A0000F7
:100FA00080B584B000AF78607A68F8239B03134063
:100FB00080225203934200D179E08022520393426F
:100FC00013D88022920293423BD080229202934215
:100FD00002D8002B23D074E08022D202934223D087
:100FE000E022120393425DD06BE0E0225203934271
:100FF0002CD0E0225203934208D89022520393420D
:101000002BD0C022520393423DD05AE0F02252032B
:10101000934231D09022920393424DD051E000F0A0
:10102000C3FD0300FB6055E000F0BEFD0300FB6064
:101030002B4B9B680F221340FA68DA401300FB60C9
:1010400048E000F095FD0300FB6043E0254B1800ED
:10105000FFF762FE0300FB603CE0224B1800FFF745
:101060005BFE0300FB601E4B9B6E0F221340FA6871
:10107000DA401300FB602DE01B4B1800FFF74CFE1D
:101080000300FB6026E0184B1800FFF745FE030045
:10109000FB60134B1B6F03221340FA68DA40130006
:1010A000FB6017E0FFF70AFE0300FB6012E0FFF7AA
:1010B000A5FD0300FB600DE0FFF7DAFE0300FB6017
:1010C00008E00023FB60094A094B11001800FFF7F4
:1010D00065FDC046FB681800BD4604B080BDC04633
:1010E00000800C4002001C0003001E0018120000CB
:1010F000A02A000080B584B000AF78600F23FB18F1
:1011000001221A707B680F221340BB60BB68072B5B
:1011100000D9CAE0BB689A006D4BD3181B689F4684
:101120006C4BDB6A6C4A134080225201934216D00A
:1011300080225201934204D880221201934213D09C
:101140001CE080229201934204D08022D204934278
:101150000FD013E00F23FB1802221A7013E00F23A5
:10116000FB1803221A700EE00F23FB1804221A70DA
:1011700009E00F23FB180B221A7004E00F23FB1861
:1011800005221A70C0469BE0524B9B6A0322134013
:10119000022B08D0032B0BD0012B0ED10F23FB18F1
:1011A00003221A7015E00F23FB1802221A7010E0B8
:1011B0000F23FB1806221A700BE0464B9A6A802315
:1011C0005B02134004D00F23FB180C221A7000E0BE
:1011D000C04675E03F4B9B6A0C221340082B08D099
:1011E0000C2B0BD0042B0ED10F23FB1803221A70EB
:1011F00015E00F23FB1802221A7010E00F23FB18D2
:1012000006221A700BE0334B9A6A80235B0313406B
:1012100004D00F23FB180C221A7000E0C0464FE0E8
:101220002C4B9B6A30221340102B02D0202B05D070
:1012300009E00F23FB1803221A7009E00F23FB18A3
:1012400002221A7004E00F23FB1801221A70C04614
:1012500036E00F23FB1807221A7031E01D4BDA6AC3
:10126000E023DB02134080229202934212D08022BC
:10127000D202934204D080225202934205D00EE063
:101280000F23FB180A221A700EE00F23FB1802220C
:101290001A7009E00F23FB1803221A7004E00F23D1
:1012A000FB1801221A70C0460AE00F23FB18002227
:1012B0001A700A4A0A4B11001800FFF76FFCC0466B
:1012C0000F23FB181B781800BD4604B080BDC04634
:1012D000382B000000800C40003C00040A1600007F
:1012E000A02A000080B582B000AF02003960FB1D6B
:1012F0001A70FB1D1B78002B21D0FB1D1B78012BC6
:101300001AD0FB1D1B78022B14D0FB1D1B78032B5E
:101310000ED0FB1D1B78042B07D0FB1D1B78052B63
:1013200001D13F230CE000230AE0F0239B0107E0FA
:10133000F02305E0114B03E0D323DB0100E0104B69
:101340003A6813410122134005D10E4A0E4B110099
:101350001800FFF723FC01223B689A4010000B495C
:10136000FB1D1A781300DB009B189B00CB1814336D
:101370001860C046BD4602B080BDC0461FEF0000E9
:1013800007070000C2030000582B00000060004067
:1013900080B582B000AF02003960FB1D1A70FB1DE2
:1013A0001B78002B21D0FB1D1B78012B1AD0FB1DB5
:1013B0001B78022B14D0FB1D1B78032B0ED0FB1DBA
:1013C0001B78042B07D0FB1D1B78052B01D13F2375
:1013D0000CE000230AE0F0239B0107E0F02305E086
:1013E000114B03E0D323DB0100E0104B3A681341BB
:1013F0000122134005D10E4A0E4B11001800FFF7D1
:10140000CDFB01223B689A4010000B49FB1D1A7866
:101410001300DB009B189B00CB1810331860C046EC
:10142000BD4602B080BDC0461FEF000007070000A8
:10143000F1030000582B00000060004090B585B01B
:1014400000AFB96011007B600F243B19021C1A70B9
:101450000E23FB180A1C1A703B191B78002B26D090
:101460000F23FB181B78012B1ED00F23FB181B78B2
:10147000022B17D00F23FB181B78032B10D00F2340
:10148000FB181B78042B08D00F23FB181B78052BA7
:1014900001D13F230CE000230AE0F0239B0107E089
:1014A000F02305E04D4B03E0D323DB0100E04C4B80
:1014B000BA6813410122134006D18A235A00494BCE
:1014C00011001800FFF76AFB0E23FB181B78002B96
:1014D00013D07B68002B08D0BA680F23FB181B7849
:1014E00011001800FFF754FF07E0BA680F23FB183C
:1014F0001B7811001800FFF7F5FEBB68072B25D8F5
:1015000039490F243B191A781300DB009B189B0004
:10151000CB1804331B68BA6892000F2191400A006F
:10152000D24313400E22BA181178BA689200914043
:101530000A0011002C483A19127819431300DB00F5
:101540009B189B00C318043319602AE026490F2416
:101550003B191A781300DB009B189B00CB1808334B
:101560001B68BA6821498C46624492000F21914061
:101570000A00D24313400E22BA181178BA681B48E9
:1015800084466244920091400A00110016483A19BC
:10159000127819431300DB009B189B00C318083313
:1015A00019600E23FB181B78002B13D17B68002BCE
:1015B00008D0BA680F23FB181B7811001800FFF73A
:1015C000E7FE07E0BA680F23FB181B78110018002C
:1015D000FFF788FEC046BD4605B090BD1FEF000076
:1015E00007070000C42B000000600040F8FFFF3F29
:1015F00080B582B000AF78600A00FB1C1A70FB1C3B
:101600001B7810221343DBB21A007B689A65C04630
:10161000BD4602B080BD000080B586B000AFF86066
:10162000B9607A601A00FB1C1A707B68002B07D126
:101630002423FF331A00504B11001800FFF7AEFAB5
:10164000BB68002B05D14D4B1800FFF7A9FC030028
:10165000BB60FB1C1B78202B18D002DC002B05D0B4
:1016600047E0402B21D0602B34D042E0BB681B09FF
:101670007A689A4207D94E23FF331A003E4B110075
:101680001800FFF78BFA10237B613AE0BB68DB0898
:101690007A689A4206D9A9235A00374B11001800DC
:1016A000FFF77CFA08237B612BE0BB68062118005A
:1016B00000F0B2FE03001A007B68934207D958235A
:1016C000FF331A002C4B11001800FFF767FA0623AE
:1016D0007B6116E0BB689B087A689A4206D9AE2304
:1016E0005A00254B11001800FFF758FA04237B61BC
:1016F00007E0B1235A00204B11001800FFF74EFA03
:1017000036E0BB685A017B6979684B435B08D318A4
:101710003B617B697A6853431900386900F07CFEAD
:1017200003003B613B69203B3B613B69DB003B6164
:101730003B69134A934206D9BC235A000E4B110051
:101740001800FFF72BFA3B690D4A13403B61FB6819
:101750001B68602293431A00FB681A60FB681A68D2
:10176000FB1C1B781A43FB681A60FB683A695A61D4
:10177000BD4606B080BDC046302C0000408104004C
:10178000F8FF1F0080B586B000AFF860B9607A60DE
:101790007B68002B05D1174A174B11001800FFF783
:1017A000FDF9BB68002B05D1144B1800FFF7F8FBBF
:1017B0000300BB60BB685A1E7B685B001900100009
:1017C00000F02AFE03007B617B691B027B617B6961
:1017D0000B4A134006D09B239A00074B11001800B8
:1017E000FFF7DCF9FB687A695A61C046BD4606B06E
:1017F00080BDC04657020000302C0000408104002C
:101800000700E0FF80B584B000AF78600A00FB1CE1
:101810001A707B68104A934209D07B680F4A934242
:1018200005D00F4A0F4B11001800FFF7B7F9FB1C4A
:101830001B78DB43FB60FB6805221340FB60FB6801
:101840005A007B68DA60FB1C1A787B68DA60C04655
:10185000BD4604B080BDC04600C0004000C400408A
:1018600087020000302C000080B582B000AF7860A5
:1018700039607B68274A93420AD07B68264A9342A4
:1018800006D0AE239A00254B11001800FFF786F909
:101890007B68180000F0BAF83B689B7C002B06D0F0
:1018A0007B681B688022D2051A437B681A603B68FC
:1018B000DB7C002B06D03B681A7D7B68110018008A
:1018C000FFF796FE3B685B7B1A003B681B8A13435D
:1018D0003A68D2891A437B685A603B6859683B680A
:1018E0009A683B681B7B7868FFF796FE3B685B7DD8
:1018F000002B06D07B681B68802252021A437B684B
:101900001A603B681B781A007B68DA60C046BD46E7
:1019100002B080BD00C0004000C40040302C000078
:1019200080B582B000AF786039607B68334A9342FB
:1019300009D07B68324A934205D0324A324B1100BB
:101940001800FFF72BF97B68180000F05FF87B6840
:101950001A683B681B8A01210B439BB219003B6844
:101960009B7B002B02D08023DB0000E000230B4395
:101970001A437B681A607B681A683B681B7D002BE2
:1019800002D080239B0500E000231A437B681A6085
:101990003B689B7C002B06D03B68DA7C7B6811009F
:1019A0001800FFF725FE3B681B7B1A0080235B01B4
:1019B0001A437B685A603B6859683B689A687B6841
:1019C0001800FFF7DFFE3B685B7B002B02D07B68D3
:1019D0001022DA603B685B7D002B06D07B681B68B9
:1019E000802252021A437B681A603B681B781A00F7
:1019F0007B68DA60C046BD4602B080BD00C00040D2
:101A000000C4004015030000302C000080B582B0F7
:101A100000AF78607B68214A934209D07B68204AF6
:101A2000934205D01F4A204B11001800FFF7B6F86B
:101A30007B681E4ADA607B6800221A607B681C4A59
:101A40005A607B6800229A607B6800225A617B683A
:101A50000022DA647B68174A9A647B6800225A6520
:101A60007B680E4A934203D07B680D4A934202D1B1
:101A70007B6800221A657B6800229A657B68074AAA
:101A8000934203D07B68064A934202D17B680022CE
:101A9000DA65C046BD4602B080BDC04600C0004009
:101AA00000C40040E7030000302C0000AA0E000034
:101AB00005100000F91F000080B582B000AF78600B
:101AC000C0467B681B6980221340FAD07B68DB69C3
:101AD000DBB21800BD4602B080BD80B582B000AF59
:101AE00078600A00FB1C1A70C0467B681B694022A4
:101AF0001340FAD0FB1C1A787B685A63C0467B6897
:101B00001B6920221340FAD07B68DB69DBB2180026
:101B1000BD4602B080BD80B582B000AF78600A00DB
:101B2000FB1C1A70C0467B681B6940221340FAD028
:101B3000FB1C1A787B685A63C046BD4602B080BD64
:101B4000064880470649074A074B9B1A03DD043BBA
:101B5000C858D050FBDCFEF7C1FA0000A51C0000FD
:101B6000082E00000000002078000020FEE7C0469C
:101B700080B582B000AF00F017F803007B60084B1F
:101B80005B680F2213407A68DA4013007B60054BD4
:101B90007A681A607B681800BD4602B080BDC046F6
:101BA00000800C400C00002080B582B000AF334BA9
:101BB000DB6A334A134080225201934215D08022BF
:101BC0005201934204D880221201934211D017E0AF
:101BD00080229201934204D08022D20493420CD0FE
:101BE0000EE0284B1B687B6039E080231B027B6082
:101BF00035E0254B1B687B6031E0244B7B602EE099
:101C00001E4BDA68E023DB001340802292009342EF
:101C100018D080229200934206D8002B18D0802240
:101C20005200934211D016E0C0229200934206D097
:101C30008022D20093420ED1154B7B600EE0154BF3
:101C40007B600BE0144B7B6008E0144B7B6005E08D
:101C5000134B7B6002E000237B60C046C046074B0D
:101C60001B689B0B0722134001331900786800F0B2
:101C7000D3FB03001800BD4602B080BD00800C40BD
:101C8000003C0004080000200400002000366E0123
:101C9000406F4001809FD500C0D8A70040B56400C8
:101CA000804F120080B500AF024B034A9A60C046D5
:101CB000BD4680BD00ED00E00000000080B500AF33
:101CC00080231B021800BD4680BD80B500AFFA23FB
:101CD0009B001800BD4680BD80B500AF024B1B685D
:101CE0001800BD4680BDC0460800002080B582B007
:101CF00000AF0200FB1D1A70FB1D1B787F2B09D85B
:101D0000FB1D1B781A001F231A40044B0121914030
:101D10000A001A60C046BD4602B080BD00E100E086
:101D200080B582B000AF02003960FB1D1A70FB1D48
:101D30001B78002B21D0FB1D1B78012B1AD0FB1D1B
:101D40001B78022B14D0FB1D1B78032B0ED0FB1D20
:101D50001B78042B07D0FB1D1B78052B01D13F23DB
:101D60000CE000230AE0F0239B0107E0F02305E0EC
:101D7000114B03E0D323DB0100E0104B3A68134121
:101D80000122134005D10E4A0E4B11001800FEF738
:101D900005FF01223B689A4010000B49FB1D1A7891
:101DA0001300DB009B189B00CB1810331860C04653
:101DB000BD4602B080BDC0461FEF0000070700000F
:101DC000F10300009C2C00000060004080B582B050
:101DD00000AF786039607B683A689A64C046BD4657
:101DE00002B080BD80B582B000AF786039607B689A
:101DF000DA6C3B681A437B68DA64C046BD4602B0C1
:101E000080BD80B582B000AF78607B681B6C180025
:101E1000BD4602B080BD80B582B000AF7860396049
:101E20007B683A685A64C046BD4602B080BD000077
:101E300090B589B000AF78600C0010001900FB1C51
:101E4000221C1A70BB1C021C1A707B1C0A1C1A7004
:101E5000A84B7A681A600823FB18A74A13CA13C351
:101E600013CA13C3A54B01211800FFF737F8A14B84
:101E70001B68A34A934205D1A24B01211800FFF72A
:101E80002DF809E09B4B1B689F4A934204D19F4B5E
:101E900001211800FFF722F8BB1C1B78002B09D08A
:101EA0000123042209210020FFF7C8FA092100209C
:101EB000FFF736FF8F4B1B68914A934245D1FB1CBD
:101EC0001B78062B00D982E09A00914BD3181B682F
:101ED0009F46002301220B210420FFF7AFFA0123C4
:101EE00004220A210420FFF7A9FA70E0002301224E
:101EF0000A210220FFF7A2FA69E0002301220C2147
:101F00000420FFF79BFA012304220D210420FFF790
:101F100095FA5CE00023012208210120FFF78EFAE8
:101F20000123042207210120FFF788FA4FE0002354
:101F3000012201210220FFF781FA0123042200215E
:101F40000220FFF77BFAC04641E06A4B1B686E4AED
:101F500093423CD1FB1C1B78052B38D89A006D4B63
:101F6000D3181B689F460023012201210220FFF79E
:101F700065FA0123042200210220FFF75FFA26E020
:101F80000023012206210320FFF758FA012304222F
:101F900007210320FFF752FA19E000230122002154
:101FA0000020FFF74BFA0123042202210520FFF74E
:101FB00045FA0CE00023012202210220FFF73EFA3D
:101FC0000123042201210220FFF738FAC046494BC1
:101FD0001B680822BA1811001800FFF745FCFB1C0B
:101FE0001B78062B44D89A004B4BD3181B689F468E
:101FF000404B1B685A6D3F4B1B6803210A435A65CF
:102000003EE03C4B1B685A6D3A4B1B680421FF3184
:102010000A435A6534E0374B1B685A6D354B1B68D1
:102020003E490A435A652BE0324B1B685A6D314BCF
:102030001B683B490A435A6522E02E4B1B685A6DC8
:102040002C4B1B6837490A435A6519E0294B1B681A
:102050005A6D284B1B6834490A435A6510E0254BDA
:102060001B685A6D234B1B6830490A435A6507E0C9
:10207000204B1B685A6D1F4B1B6803210A435A658E
:102080007B1C1B78002B2DD01A4B1B6804211800D9
:10209000FFF7A8FE174B1B6801211800FFF7A2FEEF
:1020A000144B1B68164A934206D11120FFF71EFEFF
:1020B0001220FFF71BFE0AE00E4B1B68124A9342E8
:1020C00005D10820FFF712FE0920FFF70FFE184B7D
:1020D000180000F07BF8074B1B6801211800FFF780
:1020E0009AFE03E0134B180000F070F8C046BD469E
:1020F00009B090BDA8000020642D000000820400FB
:1021000000C000400032040000C40040004204004F
:10211000802D00009C2D0000B42D00000302000063
:102120000303000003040000030500000306000091
:10213000082D0000382D000080B584B000AF786015
:102140000023FB600BE00B4B18687A68FB68D31820
:102150001B781900FFF7DFFCFB680133FB607A682E
:10216000FB68D3181B78002BEDD1C046BD4604B0E8
:1021700080BDC046A800002090B587B000AF786051
:102180007A680C243B191100180000F039F83B194B
:102190001800FFF7D1FFC046BD4607B090BD90B50F
:1021A00085B000AF02003960FB1D1A70FB1D1A7864
:1021B0000C2439193B68180000F0F4F93B19180099
:1021C000FFF7BAFFC046BD4605B090BD80B582B0EE
:1021D00000AF78607B681800FFF7AEFF074B1B6805
:1021E0000D211800FFF797FC044B1B680A2118000B
:1021F000FFF791FCC046BD4602B080BDA80000209C
:1022000090B589B000AF786039603B68002B07D18A
:102210007B6830221A707B68013300221A7064E0F8
:102220003B68FB611B23FB1800221A701A23FB1862
:1022300000221A7025E0FB690A21180000F072F9EB
:102240000B007B617B69092B04D87B69DBB23033DF
:10225000D9B200E03F211B203B181B780822BA1896
:10226000D1543B181A783B1801321A70FA697B690D
:10227000D31AFB61FB690A21180000F0CDF80300B6
:10228000FB61FB69002BD6D11A23FB181B22BA185D
:1022900012781A701923FB1800221A7016E01A20FF
:1022A0003B181B785A1E19243B191B787968CB18E8
:1022B000082179188A5C1A703B181A783B18013A81
:1022C0001A703B191A783B1901321A701923FA183F
:1022D0001B23FB1812781B789A42E0D31B23FB18B0
:1022E0001B787A68D31800221A70C046BD4609B020
:1022F00090BD000090B583B000AF254B1B6818005F
:10230000FFF77FFD03007B60214B1B687A6811009B
:102310001800FFF75BFD1E4B19681E4B1C68621C02
:102320001C4B1A600800FFF7C7FB03001A001A4B8A
:102330001A55184B1B68013B174AD35CDBB20D2BB7
:1023400007D0144B1B68013B134AD35CDBB20C2B48
:102350000BD1124B01221A700E4B1B68013B0E4A27
:102360000021D1540B4B00221A600A4B1B684D2BE5
:102370000AD90A4B01221A70064B1B68064A002133
:10238000D154044B00221A60C046BD4603B090BD34
:10239000A8000020A0000020AC0000209C0000202D
:1023A00080B582B000AF194B1B681800FFF729FDFC
:1023B00003007B60154B1B687A6811001800FFF75B
:1023C00005FD7B68012213401BD0114B1B684F2B6E
:1023D00014D80F4B1B680F4AD35CDBB2002B0DD017
:1023E0000A4B18680A4B1B68591C094A1160094AB4
:1023F000D35CDBB21900FFF78EFB02E0044B002236
:102400001A60C046BD4602B080BDC046A80000208C
:10241000A4000020FC000020002243088B4274D35B
:1024200003098B425FD3030A8B4244D3030B8B42D5
:1024300028D3030C8B420DD3FF22090212BA030CDE
:102440008B4202D31212090265D0030B8B4219D3BF
:1024500000E0090AC30B8B4201D3CB03C01A5241DF
:10246000830B8B4201D38B03C01A5241430B8B4227
:1024700001D34B03C01A5241030B8B4201D30B0310
:10248000C01A5241C30A8B4201D3CB02C01A524137
:10249000830A8B4201D38B02C01A5241430A8B42FA
:1024A00001D34B02C01A5241030A8B4201D30B02E3
:1024B000C01A5241CDD2C3098B4201D3CB01C01AFD
:1024C000524183098B4201D38B01C01A5241430907
:1024D0008B4201D34B01C01A524103098B4201D3F5
:1024E0000B01C01A5241C3088B4201D3CB00C01A62
:1024F000524183088B4201D38B00C01A52414308DA
:102500008B4201D34B00C01A5241411A00D20146FE
:10251000524110467047FFE701B5002000F006F871
:1025200002BDC0460029F7D076E770477047C04625
:10253000084B10B50400002B02D0002100E000BFC2
:10254000054B1868836A002B00D09847200000F0E4
:1025500085F8C04600000000D02D000070B50026B0
:102560000C4D0D4C641BA410A64209D1002600F0AE
:1025700077F80A4D0A4C641BA410A64205D170BD21
:10258000B300EB5898470136EEE7B300EB58984795
:102590000136F2E77000002070000020700000207B
:1025A00074000020931E10B50C00222B04D90023C8
:1025B0001C000B70200010BD0A2A09D1002807DA80
:1025C0002D230B7001214042611800F00BF8F1E758
:1025D0000021F9E703001218934200D170471970E7
:1025E0000133F9E7F0B517008DB0252206000D0084
:1025F00002A8144900F028F802AABB1E0024019288
:10260000222B05D92C70250028000DB0F0BD140038
:1026100030003900FFF786FF84460198621CAB1832
:10262000415C5E1E31706646002EF0D11E702B009C
:102630005A1B9442E8DD1A78295D19702A55013336
:10264000013CF5E7D42D0000002310B59A4200D1DB
:1026500010BDCC5CC4540133F8E70000FEE7C0466F
:10266000F8B5C046F8BC08BC9E467047F8B5C046F1
:10267000F8BC08BC9E4670472F686F6D652F62726C
:10268000656368742F50726F6772616D732F536941
:102690006D706C696369747953747564696F5F7682
:1026A000342F646576656C6F7065722F73646B731D
:1026B0002F6765636B6F5F73646B5F7375697465B8
:1026C0002F76322E342F2F706C6174666F726D2FDF
:1026D000656D6C69622F696E632F656D5F677069E8
:1026E0006F2E6800050000000000000040420F004F
:1026F0000501000000000000000000002F686F6D61
:10270000652F6272656368742F50726F6772616DB6
:10271000732F53696D706C69636974795374756450
:10272000696F5F76342F646576656C6F7065722FA4
:1027300073646B732F6765636B6F5F73646B5F7339
:10274000756974652F76322E342F2F706C61746624
:102750006F726D2F656D6C69622F696E632F656D89
:102760005F6770696F2E68003E3E3E3E3E204572B8
:10277000726F722120506C6561736520726573659C
:1027800074204D4355203C3C3C3C3C00494E464F58
:102790003A2054657374696E6720746865204144FB
:1027A000584C2028616C6C20696E202B2D326720DC
:1027B00064656661756C74206D6561737572656DB5
:1027C000656E742072616E67652C203720736563B7
:1027D0006F6E6473293A00002020207374616E6468
:1027E0006279202D2031736563202D204F445220C3
:1027F00031322C35487A202B20656E61626C652061
:102800006D6561737572656D656E7473202D203111
:10281000736563202D204F445220323520487A00C2
:102820002020202D2031736563202D204F4452201D
:10283000353020487A202D2031736563202D204FBC
:1028400044522031303020487A2028646566617512
:102850006C74206F6E20726573657429202D203191
:10286000736563202D000000202020323030487A2C
:10287000202D2031736563202D204F4452203430A9
:102880003020487A202D2031736563202D20736F0E
:10289000667420526573657400000000494E464F0F
:1028A0003A2054657374696E6720646F6E6500002A
:1028B000494E464F3A20536F6674207265736574B3
:1028C000204144584C202D2D20636F727265637433
:1028D00020494421000000005741524E3A20536FD6
:1028E0006674207265736574204144584C202D2D08
:1028F00020496E636F727265637420494421000041
:10290000494E464F3A20526574727920736F66744F
:10291000207265736574202D2D20636F727265635C
:102920007420494421000000435249543A20526522
:1029300074727920736F6674207265736574202DCC
:102940002D20496E636F72726563742049442100C3
:1029500023232320496E697469616C69736174690A
:102960006F6E7320636F6D706C6574652023232315
:1029700000000000494E464F3A204D656173757264
:10298000656D656E74206D6F6465202B2D20326738
:102990002073656C6563746564000000494E464FA2
:1029A0003A204D6561737572656D656E74206D6F4B
:1029B0006465202B2D2034672073656C6563746516
:1029C00064000000494E464F3A204D6561737572B0
:1029D000656D656E74206D6F6465202B2D203867E2
:1029E0002073656C6563746564000000494E464F52
:1029F0003A204D6561737572656D656E7420656E04
:102A000061626C65640000000D5B00005D20583A57
:102A100020000000206D67207C20593A2000000033
:102A2000206D67207C205A3A20000000206D67202E
:102A3000202000002F686F6D652F627265636874D7
:102A40002F50726F6772616D732F53696D706C696F
:102A50006369747953747564696F5F76342F646544
:102A600076656C6F7065722F73646B732F67656327
:102A70006B6F5F73646B5F73756974652F76322E4D
:102A8000342F2F706C6174666F726D2F656D6C6979
:102A9000622F696E632F656D5F636D752E68000030
:102AA0002F686F6D652F6272656368742F50726F47
:102AB0006772616D732F53696D706C6963697479A6
:102AC00053747564696F5F76342F646576656C6FD7
:102AD0007065722F73646B732F6765636B6F5F73C1
:102AE000646B5F73756974652F76322E342F706C4A
:102AF0006174666F726D2F656D6C69622F7372639E
:102B00002F656D5F636D752E630000003C0F000044
:102B10000A0F0000100F0000040F00003C0F00001F
:102B20003C0F0000160F0000200F00002A0F0000CD
:102B30003C0F0000360F0000AA1200002011000018
:102B400088110000D411000020120000AA12000019
:102B5000521200005C1200002F686F6D652F6272C8
:102B6000656368742F50726F6772616D732F53695C
:102B70006D706C696369747953747564696F5F769D
:102B8000342F646576656C6F7065722F73646B7338
:102B90002F6765636B6F5F73646B5F7375697465D3
:102BA0002F76322E342F2F706C6174666F726D2FFA
:102BB000656D6C69622F696E632F656D5F67706903
:102BC0006F2E68002F686F6D652F62726563687481
:102BD0002F50726F6772616D732F53696D706C69DE
:102BE0006369747953747564696F5F76342F6465B3
:102BF00076656C6F7065722F73646B732F67656396
:102C00006B6F5F73646B5F73756974652F76322EBB
:102C1000342F706C6174666F726D2F656D6C6962B4
:102C20002F7372632F656D5F6770696F2E6300008D
:102C30002F686F6D652F6272656368742F50726FB5
:102C40006772616D732F53696D706C696369747914
:102C500053747564696F5F76342F646576656C6F45
:102C60007065722F73646B732F6765636B6F5F732F
:102C7000646B5F73756974652F76322E342F706CB8
:102C80006174666F726D2F656D6C69622F7372630C
:102C90002F656D5F75736172742E63002F686F6DA1
:102CA000652F6272656368742F50726F6772616D11
:102CB000732F53696D706C696369747953747564AB
:102CC000696F5F76342F646576656C6F7065722FFF
:102CD00073646B732F6765636B6F5F73646B5F7394
:102CE000756974652F76322E342F2F706C6174667F
:102CF0006F726D2F656D6C69622F696E632F656DE4
:102D00005F6770696F2E6800070D0C232323205521
:102D100041525420696E697469616C697A656420F6
:102D200028696E74657272757074206D6F646529A0
:102D30002023232300000000070D0C23232320550C
:102D400041525420696E697469616C697A656420C6
:102D5000286E6F20696E74657272757074732920A5
:102D600023232300050000000000000000C2010032
:102D70000005000000100000000000003078000096
:102D8000D21E0000CE1F0000EC1E0000FA1E000044
:102D9000141F00002E1F00002E1F0000661F0000E1
:102DA000CE1F0000801F0000801F00009A1F00003F
:102DB000B41F0000F01F00000220000016200000D9
:102DC000282000003A2000004C2000005E20000077
:102DD00010000020303132333435363738396162F3
:102DE000636465666768696A6B6C6D6E6F7071723B
:102DF000737475767778797A00000000000000001F
:082E0000DCD2FF7F010000009D
:102E0800006CDC0200366E0100800000809FD50057
:102E180000000000000000000000000000000000AA
:102E2800000000000000000000000000000000009A
:102E3800000000000000000000000000000000008A
:102E4800000000000000000000000000000000007A
:102E5800000000000000000000000000000000006A
:102E6800000000000000000000000000000000005A
:082E7800BD0000009500000000
:0400000300001B419D
:00000001FF
